{
  "contractName": "HashStorage",
  "abi": [
    {
      "inputs": [],
      "stateMutability": "nonpayable",
      "type": "constructor"
    },
    {
      "anonymous": false,
      "inputs": [
        {
          "indexed": false,
          "internalType": "string",
          "name": "ipfshash",
          "type": "string"
        },
        {
          "indexed": false,
          "internalType": "string",
          "name": "filehash",
          "type": "string"
        },
        {
          "indexed": false,
          "internalType": "uint256",
          "name": "dateAdded",
          "type": "uint256"
        },
        {
          "indexed": false,
          "internalType": "address",
          "name": "recipient",
          "type": "address"
        }
      ],
      "name": "HashAdded",
      "type": "event"
    },
    {
      "anonymous": false,
      "inputs": [
        {
          "indexed": true,
          "internalType": "address",
          "name": "previousOwner",
          "type": "address"
        },
        {
          "indexed": true,
          "internalType": "address",
          "name": "newOwner",
          "type": "address"
        }
      ],
      "name": "OwnershipTransferred",
      "type": "event"
    },
    {
      "inputs": [],
      "name": "getOwner",
      "outputs": [
        {
          "internalType": "address",
          "name": "",
          "type": "address"
        }
      ],
      "stateMutability": "view",
      "type": "function",
      "constant": true
    },
    {
      "inputs": [
        {
          "internalType": "address",
          "name": "newOwner",
          "type": "address"
        }
      ],
      "name": "transferOwnership",
      "outputs": [],
      "stateMutability": "nonpayable",
      "type": "function"
    },
    {
      "inputs": [
        {
          "internalType": "string",
          "name": "_ipfshash",
          "type": "string"
        },
        {
          "internalType": "string",
          "name": "_filehash",
          "type": "string"
        },
        {
          "internalType": "uint256",
          "name": "_dateAdded",
          "type": "uint256"
        },
        {
          "internalType": "address",
          "name": "recipient",
          "type": "address"
        },
        {
          "internalType": "address",
          "name": "authorizedRecipient",
          "type": "address"
        }
      ],
      "name": "add",
      "outputs": [],
      "stateMutability": "nonpayable",
      "type": "function"
    },
    {
      "inputs": [
        {
          "internalType": "string",
          "name": "_hash",
          "type": "string"
        }
      ],
      "name": "get",
      "outputs": [
        {
          "internalType": "string",
          "name": "",
          "type": "string"
        },
        {
          "internalType": "string",
          "name": "",
          "type": "string"
        },
        {
          "internalType": "uint256",
          "name": "",
          "type": "uint256"
        },
        {
          "internalType": "bool",
          "name": "",
          "type": "bool"
        }
      ],
      "stateMutability": "view",
      "type": "function",
      "constant": true
    },
    {
      "inputs": [
        {
          "internalType": "address",
          "name": "_address",
          "type": "address"
        }
      ],
      "name": "getHashFromAddress",
      "outputs": [
        {
          "internalType": "string[]",
          "name": "",
          "type": "string[]"
        },
        {
          "internalType": "string[]",
          "name": "",
          "type": "string[]"
        }
      ],
      "stateMutability": "view",
      "type": "function",
      "constant": true
    }
  ],
  "bytecode": "0x608060405234801561001057600080fd5b50336000806101000a81548173ffffffffffffffffffffffffffffffffffffffff021916908373ffffffffffffffffffffffffffffffffffffffff16021790555060008054906101000a900473ffffffffffffffffffffffffffffffffffffffff1673ffffffffffffffffffffffffffffffffffffffff16600073ffffffffffffffffffffffffffffffffffffffff167f8be0079c531659141344cd1fd0a4f28419497f9722a3daafe3b4186f6b6457e060405160405180910390a36114e7806100db6000396000f3fe608060405234801561001057600080fd5b50600436106100575760003560e01c8063084d5c8f1461005c578063693ec85e14610078578063893d20e8146100ab578063943a0b12146100c9578063f2fde38b146100fa575b600080fd5b61007660048036038101906100719190610c48565b610116565b005b610092600480360381019061008d9190610bff565b61040d565b6040516100a29493929190610fbf565b60405180910390f35b6100b36105b1565b6040516100c09190610f1a565b60405180910390f35b6100e360048036038101906100de9190610bd2565b6105da565b6040516100f1929190610f35565b60405180910390f35b610114600480360381019061010f9190610bd2565b6108da565b005b6002846040516101269190610f03565b908152602001604051809103902060020160009054906101000a900460ff1615610185576040517f08c379a000000000000000000000000000000000000000000000000000000000815260040161017c90611072565b60405180910390fd5b60405180608001604052808681526020018481526020016001151581526020018373ffffffffffffffffffffffffffffffffffffffff168152506002856040516101cf9190610f03565b908152602001604051809103902060008201518160000190805190602001906101f9929190610a95565b506020820151816001015560408201518160020160006101000a81548160ff02191690831515021790555060608201518160020160016101000a81548173ffffffffffffffffffffffffffffffffffffffff021916908373ffffffffffffffffffffffffffffffffffffffff16021790555090505060006040518060a001604052808781526020018681526020018581526020016001151581526020018473ffffffffffffffffffffffffffffffffffffffff168152509050600360008473ffffffffffffffffffffffffffffffffffffffff1673ffffffffffffffffffffffffffffffffffffffff1681526020019081526020016000208190806001815401808255809150506001900390600052602060002090600402016000909190919091506000820151816000019080519060200190610337929190610a95565b506020820151816001019080519060200190610354929190610a95565b506040820151816002015560608201518160030160006101000a81548160ff02191690831515021790555060808201518160030160016101000a81548173ffffffffffffffffffffffffffffffffffffffff021916908373ffffffffffffffffffffffffffffffffffffffff16021790555050507fc1bad1f654336e25fad3887706656ca72ff007b834f7046737b759d3caefecd8868686866040516103fd9493929190610f6c565b60405180910390a1505050505050565b60608060008060006002866040516104259190610f03565b908152602001604051809103902060405180608001604052908160008201805461044e90611203565b80601f016020809104026020016040519081016040528092919081815260200182805461047a90611203565b80156104c75780601f1061049c576101008083540402835291602001916104c7565b820191906000526020600020905b8154815290600101906020018083116104aa57829003601f168201915b50505050508152602001600182015481526020016002820160009054906101000a900460ff161515151581526020016002820160019054906101000a900473ffffffffffffffffffffffffffffffffffffffff1673ffffffffffffffffffffffffffffffffffffffff1673ffffffffffffffffffffffffffffffffffffffff168152505090508060400151610591576040517f08c379a000000000000000000000000000000000000000000000000000000000815260040161058890611092565b60405180910390fd5b858160000151826020015183604001519450945094509450509193509193565b60008060009054906101000a900473ffffffffffffffffffffffffffffffffffffffff16905090565b6060806000600360008573ffffffffffffffffffffffffffffffffffffffff1673ffffffffffffffffffffffffffffffffffffffff16815260200190815260200160002090506000818054905011610667576040517f08c379a000000000000000000000000000000000000000000000000000000000815260040161065e90611032565b60405180910390fd5b6000818054905067ffffffffffffffff8111156106875761068661133c565b5b6040519080825280602002602001820160405280156106ba57816020015b60608152602001906001900390816106a55790505b5090506000828054905067ffffffffffffffff8111156106dd576106dc61133c565b5b60405190808252806020026020018201604052801561071057816020015b60608152602001906001900390816106fb5790505b50905060005b83805490508110156108cb578381815481106107355761073461130d565b5b9060005260206000209060040201600101805461075190611203565b80601f016020809104026020016040519081016040528092919081815260200182805461077d90611203565b80156107ca5780601f1061079f576101008083540402835291602001916107ca565b820191906000526020600020905b8154815290600101906020018083116107ad57829003601f168201915b50505050508382815181106107e2576107e161130d565b5b6020026020010181905250838181548110610800576107ff61130d565b5b9060005260206000209060040201600001805461081c90611203565b80601f016020809104026020016040519081016040528092919081815260200182805461084890611203565b80156108955780601f1061086a57610100808354040283529160200191610895565b820191906000526020600020905b81548152906001019060200180831161087857829003601f168201915b50505050508282815181106108ad576108ac61130d565b5b602002602001018190525080806108c390611266565b915050610716565b50818194509450505050915091565b60008054906101000a900473ffffffffffffffffffffffffffffffffffffffff1673ffffffffffffffffffffffffffffffffffffffff163373ffffffffffffffffffffffffffffffffffffffff1614610968576040517f08c379a000000000000000000000000000000000000000000000000000000000815260040161095f90611012565b60405180910390fd5b600073ffffffffffffffffffffffffffffffffffffffff168173ffffffffffffffffffffffffffffffffffffffff1614156109d8576040517f08c379a00000000000000000000000000000000000000000000000000000000081526004016109cf90611052565b60405180910390fd5b8073ffffffffffffffffffffffffffffffffffffffff1660008054906101000a900473ffffffffffffffffffffffffffffffffffffffff1673ffffffffffffffffffffffffffffffffffffffff167f8be0079c531659141344cd1fd0a4f28419497f9722a3daafe3b4186f6b6457e060405160405180910390a3806000806101000a81548173ffffffffffffffffffffffffffffffffffffffff021916908373ffffffffffffffffffffffffffffffffffffffff16021790555050565b828054610aa190611203565b90600052602060002090601f016020900481019282610ac35760008555610b0a565b82601f10610adc57805160ff1916838001178555610b0a565b82800160010185558215610b0a579182015b82811115610b09578251825591602001919060010190610aee565b5b509050610b179190610b1b565b5090565b5b80821115610b34576000816000905550600101610b1c565b5090565b6000610b4b610b46846110d7565b6110b2565b905082815260208101848484011115610b6757610b66611370565b5b610b728482856111c1565b509392505050565b600081359050610b8981611483565b92915050565b600082601f830112610ba457610ba361136b565b5b8135610bb4848260208601610b38565b91505092915050565b600081359050610bcc8161149a565b92915050565b600060208284031215610be857610be761137a565b5b6000610bf684828501610b7a565b91505092915050565b600060208284031215610c1557610c1461137a565b5b600082013567ffffffffffffffff811115610c3357610c32611375565b5b610c3f84828501610b8f565b91505092915050565b600080600080600060a08688031215610c6457610c6361137a565b5b600086013567ffffffffffffffff811115610c8257610c81611375565b5b610c8e88828901610b8f565b955050602086013567ffffffffffffffff811115610caf57610cae611375565b5b610cbb88828901610b8f565b9450506040610ccc88828901610bbd565b9350506060610cdd88828901610b7a565b9250506080610cee88828901610b7a565b9150509295509295909350565b6000610d078383610da2565b905092915050565b610d1881611179565b82525050565b6000610d2982611118565b610d33818561113b565b935083602082028501610d4585611108565b8060005b85811015610d815784840389528151610d628582610cfb565b9450610d6d8361112e565b925060208a01995050600181019050610d49565b50829750879550505050505092915050565b610d9c8161118b565b82525050565b6000610dad82611123565b610db7818561114c565b9350610dc78185602086016111d0565b610dd08161137f565b840191505092915050565b6000610de682611123565b610df0818561115d565b9350610e008185602086016111d0565b610e098161137f565b840191505092915050565b6000610e1f82611123565b610e29818561116e565b9350610e398185602086016111d0565b80840191505092915050565b6000610e52600d8361115d565b9150610e5d82611390565b602082019050919050565b6000610e7560258361115d565b9150610e80826113b9565b604082019050919050565b6000610e9860138361115d565b9150610ea382611408565b602082019050919050565b6000610ebb60158361115d565b9150610ec682611431565b602082019050919050565b6000610ede60138361115d565b9150610ee98261145a565b602082019050919050565b610efd816111b7565b82525050565b6000610f0f8284610e14565b915081905092915050565b6000602082019050610f2f6000830184610d0f565b92915050565b60006040820190508181036000830152610f4f8185610d1e565b90508181036020830152610f638184610d1e565b90509392505050565b60006080820190508181036000830152610f868187610ddb565b90508181036020830152610f9a8186610ddb565b9050610fa96040830185610ef4565b610fb66060830184610d0f565b95945050505050565b60006080820190508181036000830152610fd98187610ddb565b90508181036020830152610fed8186610ddb565b9050610ffc6040830185610ef4565b6110096060830184610d93565b95945050505050565b6000602082019050818103600083015261102b81610e45565b9050919050565b6000602082019050818103600083015261104b81610e68565b9050919050565b6000602082019050818103600083015261106b81610e8b565b9050919050565b6000602082019050818103600083015261108b81610eae565b9050919050565b600060208201905081810360008301526110ab81610ed1565b9050919050565b60006110bc6110cd565b90506110c88282611235565b919050565b6000604051905090565b600067ffffffffffffffff8211156110f2576110f161133c565b5b6110fb8261137f565b9050602081019050919050565b6000819050602082019050919050565b600081519050919050565b600081519050919050565b6000602082019050919050565b600082825260208201905092915050565b600082825260208201905092915050565b600082825260208201905092915050565b600081905092915050565b600061118482611197565b9050919050565b60008115159050919050565b600073ffffffffffffffffffffffffffffffffffffffff82169050919050565b6000819050919050565b82818337600083830152505050565b60005b838110156111ee5780820151818401526020810190506111d3565b838111156111fd576000848401525b50505050565b6000600282049050600182168061121b57607f821691505b6020821081141561122f5761122e6112de565b5b50919050565b61123e8261137f565b810181811067ffffffffffffffff8211171561125d5761125c61133c565b5b80604052505050565b6000611271826111b7565b91507fffffffffffffffffffffffffffffffffffffffffffffffffffffffffffffffff8214156112a4576112a36112af565b5b600182019050919050565b7f4e487b7100000000000000000000000000000000000000000000000000000000600052601160045260246000fd5b7f4e487b7100000000000000000000000000000000000000000000000000000000600052602260045260246000fd5b7f4e487b7100000000000000000000000000000000000000000000000000000000600052603260045260246000fd5b7f4e487b7100000000000000000000000000000000000000000000000000000000600052604160045260246000fd5b600080fd5b600080fd5b600080fd5b600080fd5b6000601f19601f8301169050919050565b7f4163636573732044656e69656400000000000000000000000000000000000000600082015250565b7f4e6f2066696c6573206173736f6369617465642077697468207468697320616460008201527f6472657373000000000000000000000000000000000000000000000000000000602082015250565b7f496e76616c6964206e6577206164647265737300000000000000000000000000600082015250565b7f46696c6520616c72656164792075706c6f616465640000000000000000000000600082015250565b7f46696c6520646f6573206e6f7420657869737400000000000000000000000000600082015250565b61148c81611179565b811461149757600080fd5b50565b6114a3816111b7565b81146114ae57600080fd5b5056fea264697066735822122043bd6986b1c03c9cd37d32cd97ea32fe925d816ef57f3f97cd7c29448dff868a64736f6c63430008070033",
  "immutableReferences": {},
  "source": "// SPDX-License-Identifier: MIT\r\npragma solidity ^0.8.7;\r\n\r\nimport \"./Ownable.sol\";\r\n\r\ncontract HashStorage is Ownable {\r\n    mapping(string => DocInfo) private collection;\r\n    mapping(address => Info[]) private addressToHash;\r\n\r\n    struct DocInfo {\r\n        string ipfshash;\r\n        uint256 dateAdded;\r\n        bool exist;\r\n        address authorizedRecipient;\r\n    }\r\n\r\n    struct Info {\r\n        string ipfshash;\r\n        string filehash;\r\n        uint256 dateAdded;\r\n        bool exist;\r\n        address authorizedRecipient;\r\n    }\r\n\r\n    event HashAdded(string ipfshash, string filehash, uint256 dateAdded, address recipient);\r\n\r\n    constructor() Ownable() { }  \r\n\r\n    function add(\r\n        string memory _ipfshash,\r\n        string memory _filehash,\r\n        uint256 _dateAdded,\r\n        address recipient,\r\n        address authorizedRecipient\r\n    ) public  {\r\n        require(!collection[_filehash].exist, \"File already uploaded\");\r\n\r\n        collection[_filehash] = DocInfo(_ipfshash, _dateAdded, true, recipient);\r\n\r\n        Info memory docInfo2 = Info(_ipfshash, _filehash, _dateAdded, true, recipient);\r\n        addressToHash[recipient].push(docInfo2);\r\n\r\n        emit HashAdded(_ipfshash, _filehash, _dateAdded, recipient);\r\n    }\r\n\r\n    function get(string memory _hash)\r\n        public\r\n        view\r\n        returns (string memory, string memory, uint256, bool)\r\n    {\r\n        DocInfo memory doc = collection[_hash];\r\n        require(doc.exist, \"File does not exist\");\r\n        return (_hash, doc.ipfshash, doc.dateAdded, doc.exist);\r\n    }\r\n\r\n    function getHashFromAddress(address _address)\r\n        public\r\n        view\r\n        returns (string[] memory, string[] memory)\r\n    {\r\n        Info[] storage arr = addressToHash[_address];\r\n        require(arr.length > 0, \"No files associated with this address\");\r\n\r\n        string[] memory filehashes = new string[](arr.length);\r\n        string[] memory ipfshashes = new string[](arr.length);\r\n\r\n        for (uint256 i = 0; i < arr.length; i++) {\r\n            filehashes[i] = arr[i].filehash;\r\n            ipfshashes[i] = arr[i].ipfshash;\r\n        }\r\n\r\n        return (filehashes, ipfshashes);\r\n    }\r\n}\r\n",
  "sourcePath": "D:\\Final project\\contracts\\HashStorage.sol",
  "compiler": {
    "name": "solc",
    "version": "0.8.7+commit.e28d00a7.Emscripten.clang"
  },
  "schemaVersion": "3.4.16",
  "updatedAt": "2025-04-01T13:06:03.191Z",
  "networkType": "ethereum",
  "devdoc": {
    "kind": "dev",
    "methods": {},
    "version": 1
  },
  "userdoc": {
    "kind": "user",
    "methods": {},
    "version": 1
  }
}