{
  "contractName": "HashStorage",
  "abi": [
    {
      "inputs": [],
      "stateMutability": "nonpayable",
      "type": "constructor"
    },
    {
      "anonymous": false,
      "inputs": [
        {
          "indexed": false,
          "internalType": "string",
          "name": "ipfshash",
          "type": "string"
        },
        {
          "indexed": false,
          "internalType": "string",
          "name": "filehash",
          "type": "string"
        },
        {
          "indexed": false,
          "internalType": "uint256",
          "name": "dateAdded",
          "type": "uint256"
        },
        {
          "indexed": false,
          "internalType": "address",
          "name": "recipient",
          "type": "address"
        }
      ],
      "name": "HashAdded",
      "type": "event"
    },
    {
      "anonymous": false,
      "inputs": [
        {
          "indexed": true,
          "internalType": "address",
          "name": "previousOwner",
          "type": "address"
        },
        {
          "indexed": true,
          "internalType": "address",
          "name": "newOwner",
          "type": "address"
        }
      ],
      "name": "OwnershipTransferred",
      "type": "event"
    },
    {
      "inputs": [],
      "name": "getOwner",
      "outputs": [
        {
          "internalType": "address",
          "name": "",
          "type": "address"
        }
      ],
      "stateMutability": "view",
      "type": "function",
      "constant": true
    },
    {
      "inputs": [
        {
          "internalType": "address",
          "name": "newOwner",
          "type": "address"
        }
      ],
      "name": "transferOwnership",
      "outputs": [],
      "stateMutability": "nonpayable",
      "type": "function"
    },
    {
      "inputs": [
        {
          "internalType": "string",
          "name": "_ipfshash",
          "type": "string"
        },
        {
          "internalType": "string",
          "name": "_filehash",
          "type": "string"
        },
        {
          "internalType": "uint256",
          "name": "_dateAdded",
          "type": "uint256"
        },
        {
          "internalType": "address",
          "name": "recipient",
          "type": "address"
        },
        {
          "internalType": "address",
          "name": "authorizedRecipient",
          "type": "address"
        }
      ],
      "name": "add",
      "outputs": [],
      "stateMutability": "nonpayable",
      "type": "function"
    },
    {
      "inputs": [
        {
          "internalType": "string",
          "name": "_hash",
          "type": "string"
        }
      ],
      "name": "get",
      "outputs": [
        {
          "internalType": "string",
          "name": "",
          "type": "string"
        },
        {
          "internalType": "string",
          "name": "",
          "type": "string"
        },
        {
          "internalType": "uint256",
          "name": "",
          "type": "uint256"
        },
        {
          "internalType": "bool",
          "name": "",
          "type": "bool"
        }
      ],
      "stateMutability": "view",
      "type": "function",
      "constant": true
    },
    {
      "inputs": [
        {
          "internalType": "address",
          "name": "_address",
          "type": "address"
        }
      ],
      "name": "getHashFromAddress",
      "outputs": [
        {
          "internalType": "string[]",
          "name": "",
          "type": "string[]"
        },
        {
          "internalType": "string[]",
          "name": "",
          "type": "string[]"
        }
      ],
      "stateMutability": "view",
      "type": "function",
      "constant": true
    }
  ],
  "bytecode": "0x608060405234801561001057600080fd5b50336000806101000a81548173ffffffffffffffffffffffffffffffffffffffff021916908373ffffffffffffffffffffffffffffffffffffffff16021790555060008054906101000a900473ffffffffffffffffffffffffffffffffffffffff1673ffffffffffffffffffffffffffffffffffffffff16600073ffffffffffffffffffffffffffffffffffffffff167f8be0079c531659141344cd1fd0a4f28419497f9722a3daafe3b4186f6b6457e060405160405180910390a36116f1806100db6000396000f3fe608060405234801561001057600080fd5b50600436106100575760003560e01c8063084d5c8f1461005c578063693ec85e14610078578063893d20e8146100ab578063943a0b12146100c9578063f2fde38b146100fa575b600080fd5b61007660048036038101906100719190610de6565b610116565b005b610092600480360381019061008d9190610d9d565b61051d565b6040516100a29493929190611180565b60405180910390f35b6100b36106c1565b6040516100c091906110db565b60405180910390f35b6100e360048036038101906100de9190610d70565b6106ea565b6040516100f19291906110f6565b60405180910390f35b610114600480360381019061010f9190610d70565b610a78565b005b60008054906101000a900473ffffffffffffffffffffffffffffffffffffffff1673ffffffffffffffffffffffffffffffffffffffff163373ffffffffffffffffffffffffffffffffffffffff16146101a4576040517f08c379a000000000000000000000000000000000000000000000000000000000815260040161019b906111d3565b60405180910390fd5b734db2a8e8a9d35b3a850d9dc43c334104b8a3ca8573ffffffffffffffffffffffffffffffffffffffff168173ffffffffffffffffffffffffffffffffffffffff1614610226576040517f08c379a000000000000000000000000000000000000000000000000000000000815260040161021d90611233565b60405180910390fd5b60028460405161023691906110c4565b908152602001604051809103902060020160009054906101000a900460ff1615610295576040517f08c379a000000000000000000000000000000000000000000000000000000000815260040161028c90611253565b60405180910390fd5b60405180608001604052808681526020018481526020016001151581526020018373ffffffffffffffffffffffffffffffffffffffff168152506002856040516102df91906110c4565b90815260200160405180910390206000820151816000019080519060200190610309929190610c33565b506020820151816001015560408201518160020160006101000a81548160ff02191690831515021790555060608201518160020160016101000a81548173ffffffffffffffffffffffffffffffffffffffff021916908373ffffffffffffffffffffffffffffffffffffffff16021790555090505060006040518060a001604052808781526020018681526020018581526020016001151581526020018473ffffffffffffffffffffffffffffffffffffffff168152509050600360008473ffffffffffffffffffffffffffffffffffffffff1673ffffffffffffffffffffffffffffffffffffffff1681526020019081526020016000208190806001815401808255809150506001900390600052602060002090600402016000909190919091506000820151816000019080519060200190610447929190610c33565b506020820151816001019080519060200190610464929190610c33565b506040820151816002015560608201518160030160006101000a81548160ff02191690831515021790555060808201518160030160016101000a81548173ffffffffffffffffffffffffffffffffffffffff021916908373ffffffffffffffffffffffffffffffffffffffff16021790555050507fc1bad1f654336e25fad3887706656ca72ff007b834f7046737b759d3caefecd88686868660405161050d949392919061112d565b60405180910390a1505050505050565b606080600080600060028660405161053591906110c4565b908152602001604051809103902060405180608001604052908160008201805461055e906113e4565b80601f016020809104026020016040519081016040528092919081815260200182805461058a906113e4565b80156105d75780601f106105ac576101008083540402835291602001916105d7565b820191906000526020600020905b8154815290600101906020018083116105ba57829003601f168201915b50505050508152602001600182015481526020016002820160009054906101000a900460ff161515151581526020016002820160019054906101000a900473ffffffffffffffffffffffffffffffffffffffff1673ffffffffffffffffffffffffffffffffffffffff1673ffffffffffffffffffffffffffffffffffffffff1681525050905080604001516106a1576040517f08c379a000000000000000000000000000000000000000000000000000000000815260040161069890611273565b60405180910390fd5b858160000151826020015183604001519450945094509450509193509193565b60008060009054906101000a900473ffffffffffffffffffffffffffffffffffffffff16905090565b60608060008054906101000a900473ffffffffffffffffffffffffffffffffffffffff1673ffffffffffffffffffffffffffffffffffffffff163373ffffffffffffffffffffffffffffffffffffffff161461077b576040517f08c379a0000000000000000000000000000000000000000000000000000000008152600401610772906111d3565b60405180910390fd5b6000600360008573ffffffffffffffffffffffffffffffffffffffff1673ffffffffffffffffffffffffffffffffffffffff16815260200190815260200160002090506000818054905011610805576040517f08c379a00000000000000000000000000000000000000000000000000000000081526004016107fc906111f3565b60405180910390fd5b6000818054905067ffffffffffffffff8111156108255761082461151d565b5b60405190808252806020026020018201604052801561085857816020015b60608152602001906001900390816108435790505b5090506000828054905067ffffffffffffffff81111561087b5761087a61151d565b5b6040519080825280602002602001820160405280156108ae57816020015b60608152602001906001900390816108995790505b50905060005b8380549050811015610a69578381815481106108d3576108d26114ee565b5b906000526020600020906004020160010180546108ef906113e4565b80601f016020809104026020016040519081016040528092919081815260200182805461091b906113e4565b80156109685780601f1061093d57610100808354040283529160200191610968565b820191906000526020600020905b81548152906001019060200180831161094b57829003601f168201915b50505050508382815181106109805761097f6114ee565b5b602002602001018190525083818154811061099e5761099d6114ee565b5b906000526020600020906004020160000180546109ba906113e4565b80601f01602080910402602001604051908101604052809291908181526020018280546109e6906113e4565b8015610a335780601f10610a0857610100808354040283529160200191610a33565b820191906000526020600020905b815481529060010190602001808311610a1657829003601f168201915b5050505050828281518110610a4b57610a4a6114ee565b5b60200260200101819052508080610a6190611447565b9150506108b4565b50818194509450505050915091565b60008054906101000a900473ffffffffffffffffffffffffffffffffffffffff1673ffffffffffffffffffffffffffffffffffffffff163373ffffffffffffffffffffffffffffffffffffffff1614610b06576040517f08c379a0000000000000000000000000000000000000000000000000000000008152600401610afd906111d3565b60405180910390fd5b600073ffffffffffffffffffffffffffffffffffffffff168173ffffffffffffffffffffffffffffffffffffffff161415610b76576040517f08c379a0000000000000000000000000000000000000000000000000000000008152600401610b6d90611213565b60405180910390fd5b8073ffffffffffffffffffffffffffffffffffffffff1660008054906101000a900473ffffffffffffffffffffffffffffffffffffffff1673ffffffffffffffffffffffffffffffffffffffff167f8be0079c531659141344cd1fd0a4f28419497f9722a3daafe3b4186f6b6457e060405160405180910390a3806000806101000a81548173ffffffffffffffffffffffffffffffffffffffff021916908373ffffffffffffffffffffffffffffffffffffffff16021790555050565b828054610c3f906113e4565b90600052602060002090601f016020900481019282610c615760008555610ca8565b82601f10610c7a57805160ff1916838001178555610ca8565b82800160010185558215610ca8579182015b82811115610ca7578251825591602001919060010190610c8c565b5b509050610cb59190610cb9565b5090565b5b80821115610cd2576000816000905550600101610cba565b5090565b6000610ce9610ce4846112b8565b611293565b905082815260208101848484011115610d0557610d04611551565b5b610d108482856113a2565b509392505050565b600081359050610d278161168d565b92915050565b600082601f830112610d4257610d4161154c565b5b8135610d52848260208601610cd6565b91505092915050565b600081359050610d6a816116a4565b92915050565b600060208284031215610d8657610d8561155b565b5b6000610d9484828501610d18565b91505092915050565b600060208284031215610db357610db261155b565b5b600082013567ffffffffffffffff811115610dd157610dd0611556565b5b610ddd84828501610d2d565b91505092915050565b600080600080600060a08688031215610e0257610e0161155b565b5b600086013567ffffffffffffffff811115610e2057610e1f611556565b5b610e2c88828901610d2d565b955050602086013567ffffffffffffffff811115610e4d57610e4c611556565b5b610e5988828901610d2d565b9450506040610e6a88828901610d5b565b9350506060610e7b88828901610d18565b9250506080610e8c88828901610d18565b9150509295509295909350565b6000610ea58383610f40565b905092915050565b610eb68161135a565b82525050565b6000610ec7826112f9565b610ed1818561131c565b935083602082028501610ee3856112e9565b8060005b85811015610f1f5784840389528151610f008582610e99565b9450610f0b8361130f565b925060208a01995050600181019050610ee7565b50829750879550505050505092915050565b610f3a8161136c565b82525050565b6000610f4b82611304565b610f55818561132d565b9350610f658185602086016113b1565b610f6e81611560565b840191505092915050565b6000610f8482611304565b610f8e818561133e565b9350610f9e8185602086016113b1565b610fa781611560565b840191505092915050565b6000610fbd82611304565b610fc7818561134f565b9350610fd78185602086016113b1565b80840191505092915050565b6000610ff0600d8361133e565b9150610ffb82611571565b602082019050919050565b600061101360258361133e565b915061101e8261159a565b604082019050919050565b600061103660138361133e565b9150611041826115e9565b602082019050919050565b600061105960188361133e565b915061106482611612565b602082019050919050565b600061107c60158361133e565b91506110878261163b565b602082019050919050565b600061109f60138361133e565b91506110aa82611664565b602082019050919050565b6110be81611398565b82525050565b60006110d08284610fb2565b915081905092915050565b60006020820190506110f06000830184610ead565b92915050565b600060408201905081810360008301526111108185610ebc565b905081810360208301526111248184610ebc565b90509392505050565b600060808201905081810360008301526111478187610f79565b9050818103602083015261115b8186610f79565b905061116a60408301856110b5565b6111776060830184610ead565b95945050505050565b6000608082019050818103600083015261119a8187610f79565b905081810360208301526111ae8186610f79565b90506111bd60408301856110b5565b6111ca6060830184610f31565b95945050505050565b600060208201905081810360008301526111ec81610fe3565b9050919050565b6000602082019050818103600083015261120c81611006565b9050919050565b6000602082019050818103600083015261122c81611029565b9050919050565b6000602082019050818103600083015261124c8161104c565b9050919050565b6000602082019050818103600083015261126c8161106f565b9050919050565b6000602082019050818103600083015261128c81611092565b9050919050565b600061129d6112ae565b90506112a98282611416565b919050565b6000604051905090565b600067ffffffffffffffff8211156112d3576112d261151d565b5b6112dc82611560565b9050602081019050919050565b6000819050602082019050919050565b600081519050919050565b600081519050919050565b6000602082019050919050565b600082825260208201905092915050565b600082825260208201905092915050565b600082825260208201905092915050565b600081905092915050565b600061136582611378565b9050919050565b60008115159050919050565b600073ffffffffffffffffffffffffffffffffffffffff82169050919050565b6000819050919050565b82818337600083830152505050565b60005b838110156113cf5780820151818401526020810190506113b4565b838111156113de576000848401525b50505050565b600060028204905060018216806113fc57607f821691505b602082108114156114105761140f6114bf565b5b50919050565b61141f82611560565b810181811067ffffffffffffffff8211171561143e5761143d61151d565b5b80604052505050565b600061145282611398565b91507fffffffffffffffffffffffffffffffffffffffffffffffffffffffffffffffff82141561148557611484611490565b5b600182019050919050565b7f4e487b7100000000000000000000000000000000000000000000000000000000600052601160045260246000fd5b7f4e487b7100000000000000000000000000000000000000000000000000000000600052602260045260246000fd5b7f4e487b7100000000000000000000000000000000000000000000000000000000600052603260045260246000fd5b7f4e487b7100000000000000000000000000000000000000000000000000000000600052604160045260246000fd5b600080fd5b600080fd5b600080fd5b600080fd5b6000601f19601f8301169050919050565b7f4163636573732044656e69656400000000000000000000000000000000000000600082015250565b7f4e6f2066696c6573206173736f6369617465642077697468207468697320616460008201527f6472657373000000000000000000000000000000000000000000000000000000602082015250565b7f496e76616c6964206e6577206164647265737300000000000000000000000000600082015250565b7f4e6f7420617574686f72697a656420746f206163636573730000000000000000600082015250565b7f46696c6520616c72656164792075706c6f616465640000000000000000000000600082015250565b7f46696c6520646f6573206e6f7420657869737400000000000000000000000000600082015250565b6116968161135a565b81146116a157600080fd5b50565b6116ad81611398565b81146116b857600080fd5b5056fea264697066735822122001727f68f0980e28369fe3687232f5519a3e99f78983db6c9b577b98ab32336864736f6c63430008070033",
  "immutableReferences": {},
  "source": "// SPDX-License-Identifier: MIT\r\npragma solidity ^0.8.7;\r\n\r\nimport \"./Ownable.sol\";\r\n\r\ncontract HashStorage is Ownable {\r\n    mapping(string => DocInfo) private collection;\r\n    mapping(address => Info[]) private addressToHash;\r\n\r\n    struct DocInfo {\r\n        string ipfshash;\r\n        uint256 dateAdded;\r\n        bool exist;\r\n        address authorizedRecipient;\r\n    }\r\n\r\n    struct Info {\r\n        string ipfshash;\r\n        string filehash;\r\n        uint256 dateAdded;\r\n        bool exist;\r\n        address authorizedRecipient;\r\n    }\r\n\r\n    event HashAdded(string ipfshash, string filehash, uint256 dateAdded, address recipient);\r\n\r\n    constructor() Ownable() { }  \r\n\r\n    function add(\r\n        string memory _ipfshash,\r\n        string memory _filehash,\r\n        uint256 _dateAdded,\r\n        address recipient,\r\n        address authorizedRecipient\r\n    ) public onlyOwner {\r\n        require(\r\n            authorizedRecipient == address(0x4DB2a8e8a9D35B3a850d9Dc43c334104B8a3Ca85), //  Fix: Correct address comparison\r\n            \"Not authorized to access\"\r\n        );\r\n\r\n        require(!collection[_filehash].exist, \"File already uploaded\");\r\n\r\n        collection[_filehash] = DocInfo(_ipfshash, _dateAdded, true, recipient);\r\n\r\n        Info memory docInfo2 = Info(_ipfshash, _filehash, _dateAdded, true, recipient);\r\n        addressToHash[recipient].push(docInfo2);\r\n\r\n        emit HashAdded(_ipfshash, _filehash, _dateAdded, recipient);\r\n    }\r\n\r\n    function get(string memory _hash)\r\n        public\r\n        view\r\n        returns (string memory, string memory, uint256, bool)\r\n    {\r\n        DocInfo memory doc = collection[_hash];\r\n        require(doc.exist, \"File does not exist\");\r\n        return (_hash, doc.ipfshash, doc.dateAdded, doc.exist);\r\n    }\r\n\r\n    function getHashFromAddress(address _address)\r\n        public\r\n        view\r\n        onlyOwner\r\n        returns (string[] memory, string[] memory)\r\n    {\r\n        Info[] storage arr = addressToHash[_address];\r\n        require(arr.length > 0, \"No files associated with this address\");\r\n\r\n        string[] memory filehashes = new string[](arr.length);\r\n        string[] memory ipfshashes = new string[](arr.length);\r\n\r\n        for (uint256 i = 0; i < arr.length; i++) {\r\n            filehashes[i] = arr[i].filehash;\r\n            ipfshashes[i] = arr[i].ipfshash;\r\n        }\r\n\r\n        return (filehashes, ipfshashes);\r\n    }\r\n}\r\n",
  "sourcePath": "D:\\Final project\\contracts\\HashStorage.sol",
  "compiler": {
    "name": "solc",
    "version": "0.8.7+commit.e28d00a7.Emscripten.clang"
  },
  "schemaVersion": "3.4.16",
  "updatedAt": "2025-03-10T02:41:27.764Z",
  "networkType": "ethereum",
  "devdoc": {
    "kind": "dev",
    "methods": {},
    "version": 1
  },
  "userdoc": {
    "kind": "user",
    "methods": {},
    "version": 1
  }
}