{
  "contractName": "Migrations",
  "abi": [
    {
      "inputs": [],
      "stateMutability": "nonpayable",
      "type": "constructor"
    },
    {
      "inputs": [],
      "name": "lastCompletedMigration",
      "outputs": [
        {
          "internalType": "uint256",
          "name": "",
          "type": "uint256"
        }
      ],
      "stateMutability": "view",
      "type": "function",
      "constant": true
    },
    {
      "inputs": [],
      "name": "owner",
      "outputs": [
        {
          "internalType": "address",
          "name": "",
          "type": "address"
        }
      ],
      "stateMutability": "view",
      "type": "function",
      "constant": true
    },
    {
      "inputs": [
        {
          "internalType": "uint256",
          "name": "completed",
          "type": "uint256"
        }
      ],
      "name": "setCompleted",
      "outputs": [],
      "stateMutability": "nonpayable",
      "type": "function"
    },
    {
      "inputs": [
        {
          "internalType": "address",
          "name": "newAddress",
          "type": "address"
        }
      ],
      "name": "upgrade",
      "outputs": [],
      "stateMutability": "nonpayable",
      "type": "function"
    }
  ],
  "bytecode": "0x608060405234801561001057600080fd5b50336000806101000a81548173ffffffffffffffffffffffffffffffffffffffff021916908373ffffffffffffffffffffffffffffffffffffffff16021790555061055b806100606000396000f3fe608060405234801561001057600080fd5b506004361061004c5760003560e01c80630900f010146100515780638da5cb5b1461006d578063fbdbad3c1461008b578063fdacd576146100a9575b600080fd5b61006b6004803603810190610066919061031f565b6100c5565b005b610075610233565b60405161008291906103dd565b60405180910390f35b610093610257565b6040516100a09190610438565b60405180910390f35b6100c360048036038101906100be919061034c565b61025d565b005b60008054906101000a900473ffffffffffffffffffffffffffffffffffffffff1673ffffffffffffffffffffffffffffffffffffffff163373ffffffffffffffffffffffffffffffffffffffff1614610153576040517f08c379a000000000000000000000000000000000000000000000000000000000815260040161014a906103f8565b60405180910390fd5b600073ffffffffffffffffffffffffffffffffffffffff168173ffffffffffffffffffffffffffffffffffffffff1614156101c3576040517f08c379a00000000000000000000000000000000000000000000000000000000081526004016101ba90610418565b60405180910390fd5b8073ffffffffffffffffffffffffffffffffffffffff1663fdacd5766001546040518263ffffffff1660e01b81526004016101fe9190610438565b600060405180830381600087803b15801561021857600080fd5b505af115801561022c573d6000803e3d6000fd5b5050505050565b60008054906101000a900473ffffffffffffffffffffffffffffffffffffffff1681565b60015481565b60008054906101000a900473ffffffffffffffffffffffffffffffffffffffff1673ffffffffffffffffffffffffffffffffffffffff163373ffffffffffffffffffffffffffffffffffffffff16146102eb576040517f08c379a00000000000000000000000000000000000000000000000000000000081526004016102e2906103f8565b60405180910390fd5b8060018190555050565b600081359050610304816104f7565b92915050565b6000813590506103198161050e565b92915050565b600060208284031215610335576103346104a0565b5b6000610343848285016102f5565b91505092915050565b600060208284031215610362576103616104a0565b5b60006103708482850161030a565b91505092915050565b61038281610464565b82525050565b6000610395600d83610453565b91506103a0826104a5565b602082019050919050565b60006103b8601383610453565b91506103c3826104ce565b602082019050919050565b6103d781610496565b82525050565b60006020820190506103f26000830184610379565b92915050565b6000602082019050818103600083015261041181610388565b9050919050565b60006020820190508181036000830152610431816103ab565b9050919050565b600060208201905061044d60008301846103ce565b92915050565b600082825260208201905092915050565b600061046f82610476565b9050919050565b600073ffffffffffffffffffffffffffffffffffffffff82169050919050565b6000819050919050565b600080fd5b7f4163636573732044656e69656400000000000000000000000000000000000000600082015250565b7f496e76616c6964206e6577206164647265737300000000000000000000000000600082015250565b61050081610464565b811461050b57600080fd5b50565b61051781610496565b811461052257600080fd5b5056fea26469706673582212202eed0868964f2d2f7eaa00780ff5ed05060afaafa82e6a73c0ab6e1e9729b25f64736f6c63430008070033",
  "immutableReferences": {},
  "source": "// SPDX-License-Identifier: MIT\npragma solidity ^0.8.7;\n\ninterface IMigrations {\n    function setCompleted(uint completed) external;\n}\n\ncontract Migrations {\n    address public owner;\n    uint public lastCompletedMigration;\n\n    constructor() {\n        owner = msg.sender;\n    }\n\n    modifier restricted() {\n        require(msg.sender == owner, \"Access Denied\");\n        _;\n    }\n\n    function setCompleted(uint completed) external restricted {\n        lastCompletedMigration = completed;\n    }\n\n    function upgrade(address newAddress) external restricted {\n        require(newAddress != address(0), \"Invalid new address\");\n        IMigrations(newAddress).setCompleted(lastCompletedMigration);\n    }\n}\n",
  "sourcePath": "/Users/arvindsunil/Desktop/mini-project/contracts/Migrations.sol",
  "compiler": {
    "name": "solc",
    "version": "0.8.7+commit.e28d00a7.Emscripten.clang"
  },
  "schemaVersion": "3.4.16",
  "updatedAt": "2025-03-10T15:00:40.791Z",
  "networkType": "ethereum",
  "devdoc": {
    "kind": "dev",
    "methods": {},
    "version": 1
  },
  "userdoc": {
    "kind": "user",
    "methods": {},
    "version": 1
  }
}