{
  "contractName": "Ownable",
  "abi": [
    {
      "inputs": [],
      "stateMutability": "nonpayable",
      "type": "constructor"
    },
    {
      "anonymous": false,
      "inputs": [
        {
          "indexed": true,
          "internalType": "address",
          "name": "previousOwner",
          "type": "address"
        },
        {
          "indexed": true,
          "internalType": "address",
          "name": "newOwner",
          "type": "address"
        }
      ],
      "name": "OwnershipTransferred",
      "type": "event"
    },
    {
      "inputs": [
        {
          "internalType": "address",
          "name": "newOwner",
          "type": "address"
        }
      ],
      "name": "transferOwnership",
      "outputs": [],
      "stateMutability": "nonpayable",
      "type": "function"
    },
    {
      "inputs": [],
      "name": "getOwner",
      "outputs": [
        {
          "internalType": "address",
          "name": "",
          "type": "address"
        }
      ],
      "stateMutability": "view",
      "type": "function"
    }
  ],
  "bytecode": "0x608060405234801561001057600080fd5b50336000806101000a81548173ffffffffffffffffffffffffffffffffffffffff021916908373ffffffffffffffffffffffffffffffffffffffff16021790555060008054906101000a900473ffffffffffffffffffffffffffffffffffffffff1673ffffffffffffffffffffffffffffffffffffffff16600073ffffffffffffffffffffffffffffffffffffffff167f8be0079c531659141344cd1fd0a4f28419497f9722a3daafe3b4186f6b6457e060405160405180910390a3610432806100db6000396000f3fe608060405234801561001057600080fd5b50600436106100365760003560e01c8063893d20e81461003b578063f2fde38b14610059575b600080fd5b610043610075565b60405161005091906102f0565b60405180910390f35b610073600480360381019061006e919061026e565b61009e565b005b60008060009054906101000a900473ffffffffffffffffffffffffffffffffffffffff16905090565b60008054906101000a900473ffffffffffffffffffffffffffffffffffffffff1673ffffffffffffffffffffffffffffffffffffffff163373ffffffffffffffffffffffffffffffffffffffff161461012c576040517f08c379a00000000000000000000000000000000000000000000000000000000081526004016101239061030b565b60405180910390fd5b600073ffffffffffffffffffffffffffffffffffffffff168173ffffffffffffffffffffffffffffffffffffffff16141561019c576040517f08c379a00000000000000000000000000000000000000000000000000000000081526004016101939061032b565b60405180910390fd5b8073ffffffffffffffffffffffffffffffffffffffff1660008054906101000a900473ffffffffffffffffffffffffffffffffffffffff1673ffffffffffffffffffffffffffffffffffffffff167f8be0079c531659141344cd1fd0a4f28419497f9722a3daafe3b4186f6b6457e060405160405180910390a3806000806101000a81548173ffffffffffffffffffffffffffffffffffffffff021916908373ffffffffffffffffffffffffffffffffffffffff16021790555050565b600081359050610268816103e5565b92915050565b6000602082840312156102845761028361038e565b5b600061029284828501610259565b91505092915050565b6102a48161035c565b82525050565b60006102b7600d8361034b565b91506102c282610393565b602082019050919050565b60006102da60138361034b565b91506102e5826103bc565b602082019050919050565b6000602082019050610305600083018461029b565b92915050565b60006020820190508181036000830152610324816102aa565b9050919050565b60006020820190508181036000830152610344816102cd565b9050919050565b600082825260208201905092915050565b60006103678261036e565b9050919050565b600073ffffffffffffffffffffffffffffffffffffffff82169050919050565b600080fd5b7f4163636573732044656e69656400000000000000000000000000000000000000600082015250565b7f496e76616c6964206e6577206164647265737300000000000000000000000000600082015250565b6103ee8161035c565b81146103f957600080fd5b5056fea264697066735822122056180786ac1824dc60088132e3dd0537f63a32e14c5238d69769abf77ab6c71d64736f6c63430008070033",
  "immutableReferences": {},
  "source": "// SPDX-License-Identifier: MIT\npragma solidity ^0.8.7;\n\ncontract Ownable {\n    address private owner;\n\n    event OwnershipTransferred(address indexed previousOwner, address indexed newOwner);\n\n    mapping(address => bool) private admins;\n\n    constructor() {\n        owner = msg.sender;\n        emit OwnershipTransferred(address(0), owner);\n    }\n\n    modifier onlyOwner() {\n        require(msg.sender == owner, \"Access Denied\");\n        _;\n    }\n\n    function transferOwnership(address newOwner) external onlyOwner {\n        require(newOwner != address(0), \"Invalid new address\");\n        emit OwnershipTransferred(owner, newOwner);\n        owner = newOwner;\n    }\n\n    function getOwner() external view returns (address) {\n        return owner;\n    }\n}\n",
  "sourcePath": "/Users/arvindsunil/Desktop/mini-project/contracts/Ownable.sol",
  "compiler": {
    "name": "solc",
    "version": "0.8.7+commit.e28d00a7.Emscripten.clang"
  },
  "schemaVersion": "3.4.16",
  "updatedAt": "2025-03-10T14:53:15.007Z",
  "devdoc": {
    "kind": "dev",
    "methods": {},
    "version": 1
  },
  "userdoc": {
    "kind": "user",
    "methods": {},
    "version": 1
  }
}